{
  "contractName": "Election",
  "abi": [
    {
      "inputs": [],
      "payable": false,
      "stateMutability": "nonpayable",
      "type": "constructor"
    },
    {
      "constant": true,
      "inputs": [
        {
          "internalType": "uint256",
          "name": "",
          "type": "uint256"
        }
      ],
      "name": "candidates",
      "outputs": [
        {
          "internalType": "uint256",
          "name": "id",
          "type": "uint256"
        },
        {
          "internalType": "string",
          "name": "name",
          "type": "string"
        },
        {
          "internalType": "uint256",
          "name": "voteCount",
          "type": "uint256"
        }
      ],
      "payable": false,
      "stateMutability": "view",
      "type": "function"
    },
    {
      "constant": true,
      "inputs": [],
      "name": "candidatesCount",
      "outputs": [
        {
          "internalType": "uint256",
          "name": "",
          "type": "uint256"
        }
      ],
      "payable": false,
      "stateMutability": "view",
      "type": "function"
    },
    {
      "constant": true,
      "inputs": [
        {
          "internalType": "address",
          "name": "",
          "type": "address"
        }
      ],
      "name": "voters",
      "outputs": [
        {
          "internalType": "bool",
          "name": "",
          "type": "bool"
        }
      ],
      "payable": false,
      "stateMutability": "view",
      "type": "function"
    },
    {
      "constant": false,
      "inputs": [],
      "name": "isContractLocked",
      "outputs": [
        {
          "internalType": "bool",
          "name": "",
          "type": "bool"
        }
      ],
      "payable": false,
      "stateMutability": "nonpayable",
      "type": "function"
    },
    {
      "constant": true,
      "inputs": [],
      "name": "secondsRemaining",
      "outputs": [
        {
          "internalType": "uint256",
          "name": "",
          "type": "uint256"
        }
      ],
      "payable": false,
      "stateMutability": "view",
      "type": "function"
    },
    {
      "constant": false,
      "inputs": [
        {
          "internalType": "uint256",
          "name": "_candidateId",
          "type": "uint256"
        }
      ],
      "name": "vote",
      "outputs": [],
      "payable": false,
      "stateMutability": "nonpayable",
      "type": "function"
    }
  ],
  "bytecode": "0x60806040524260035561012c60045534801561001a57600080fd5b5061005f6040518060400160405280600b81526020017f63616e64696461746520310000000000000000000000000000000000000000008152506100a860201b60201c565b6100a36040518060400160405280600b81526020017f63616e64696461746520320000000000000000000000000000000000000000008152506100a860201b60201c565b6101c9565b600260008154809291906001019190505550604051806060016040528060025481526020018281526020016000815250600160006002548152602001908152602001600020600082015181600001556020820151816001019080519060200190610113929190610124565b506040820151816002015590505050565b828054600181600116156101000203166002900490600052602060002090601f016020900481019282601f1061016557805160ff1916838001178555610193565b82800160010185558215610193579182015b82811115610192578251825591602001919060010190610177565b5b5090506101a091906101a4565b5090565b6101c691905b808211156101c25760008160009055506001016101aa565b5090565b90565b61046d806101d86000396000f3fe608060405234801561001057600080fd5b50600436106100625760003560e01c80630121b93f146100675780632d35a8a2146100955780633477ee2e146100b3578063940ebef714610168578063a3ec138d14610186578063e5b4f6c6146101e2575b600080fd5b6100936004803603602081101561007d57600080fd5b8101908080359060200190929190505050610204565b005b61009d610307565b6040518082815260200191505060405180910390f35b6100df600480360360208110156100c957600080fd5b810190808035906020019092919050505061030d565b6040518084815260200180602001838152602001828103825284818151815260200191508051906020019080838360005b8381101561012b578082015181840152602081019050610110565b50505050905090810190601f1680156101585780820380516001836020036101000a031916815260200191505b5094505050505060405180910390f35b6101706103cf565b6040518082815260200191505060405180910390f35b6101c86004803603602081101561019c57600080fd5b81019080803573ffffffffffffffffffffffffffffffffffffffff1690602001909291905050506103f5565b604051808215151515815260200191505060405180910390f35b6101ea610415565b604051808215151515815260200191505060405180910390f35b61020c610415565b1561021657600080fd5b6000803373ffffffffffffffffffffffffffffffffffffffff1673ffffffffffffffffffffffffffffffffffffffff16815260200190815260200160002060009054906101000a900460ff161561026c57600080fd5b60008111801561027e57506002548111155b61028757600080fd5b60016000803373ffffffffffffffffffffffffffffffffffffffff1673ffffffffffffffffffffffffffffffffffffffff16815260200190815260200160002060006101000a81548160ff021916908315150217905550600160008281526020019081526020016000206002016000815480929190600101919050555050565b60025481565b6001602052806000526040600020600091509050806000015490806001018054600181600116156101000203166002900480601f0160208091040260200160405190810160405280929190818152602001828054600181600116156101000203166002900480156103bf5780601f10610394576101008083540402835291602001916103bf565b820191906000526020600020905b8154815290600101906020018083116103a257829003601f168201915b5050505050908060020154905083565b6000603c600354420310156103ed576003544203603c0390506103f2565b600090505b90565b60006020528060005260406000206000915054906101000a900460ff1681565b60006001600454026003540142106104305760019050610435565b600090505b9056fea265627a7a723158201db571cb74bb63ea32ce728dda073272f9ea49d83fba889f572ccd4e96ec748664736f6c63430005100032",
  "source": "pragma solidity ^0.5.16;\n\ncontract Election {\n    struct Candidate {\n        uint256 id;\n        string name;\n        uint256 voteCount;\n    }\n\n    //store accoutnts that have voted\n    mapping(address => bool) public voters;\n    // we are saving the values :\n    // {unit : Candidate}\n    mapping(uint256 => Candidate) public candidates;\n    // count the number of the candidates\n    uint256 public candidatesCount;\n    uint256 private start = now;\n    uint256 private secondsAfter = 60 * 5;\n\n    // constructor\n    //the same name as the contruct ==> constructor\n    constructor() public {\n        addCandidate(\"candidate 1\");\n        addCandidate(\"candidate 2\");\n    }\n\n    function isContractLocked() public returns (bool) {\n        if (now >= start + secondsAfter * 1 seconds) {\n            return true;\n        }\n        return false;\n    }\n\n    function addCandidate(string memory _name) private {\n        candidatesCount++;\n        candidates[candidatesCount] = Candidate(candidatesCount, _name, 0);\n    }\n\n    function secondsRemaining() public view returns (uint256) {\n        if ( (now - start) < 60) {\n            return (60 * 1 seconds) - (now - start);\n        } else {\n            return 0;\n        }\n    }\n\n    function vote(uint256 _candidateId) public {\n        //require:\n        //0. contract is not locked\n        require(!isContractLocked());\n        //1. the voter never voted before\n        //      the voter is not in the voters mapping\n        require(!voters[msg.sender]);\n        //2. valid candidate\n        require(_candidateId > 0 && _candidateId <= candidatesCount);\n\n        //record that voter has voted\n        //msg.sender -> a way to access the sender\n        voters[msg.sender] = true;\n        //update candidate vote count\n        candidates[_candidateId].voteCount++;\n    }\n}\n",
  "sourcePath": "/home/tom/projects/blockchain/Election-Smart-Contract/contracts/Election.sol",
  "compiler": {
    "name": "solc",
    "version": "0.5.16+commit.9c3226ce.Emscripten.clang"
  },
  "schemaVersion": "3.3.3",
  "updatedAt": "2021-02-28T18:57:45.643Z",
  "networkType": "ethereum",
  "devdoc": {
    "methods": {}
  },
  "userdoc": {
    "methods": {}
  }
}